:020000040800F2
:100000000050002095060008A1040008A70400087D
:10001000AD040008B3040008B904000800000000A3
:10002000000000000000000000000000BF04000805
:10003000CB04000800000000D7040008E304000817
:10004000DD060008DD060008DD060008DD06000804
:10005000DD060008DD060008DD060008DD060008F4
:10006000DD060008DD060008DD060008DD060008E4
:10007000DD060008DD060008DD060008DD060008D4
:10008000DD060008DD060008DD060008DD060008C4
:10009000DD060008DD060008DD060008DD060008B4
:1000A000DD06000881050008DD060008DD06000801
:1000B000DD060008DD060008DD060008DD06000894
:1000C000DD060008DD060008DD060008DD06000884
:1000D000DD060008DD060008DD060008DD06000874
:1000E000DD060008DD060008DD060008000000004F
:1000F0000000000000000000000000000000000000
:0C01000000000000000000005FF808F1A3
:10010C0010B5054C237833B9044B13B10448AFF345
:10011C0000800123237010BD0400002000000000AB
:10012C004C07000808B5034B1BB103490348AFF358
:10013C00008008BD00000000080000204C070008EB
:10014C0080B48FB000AF5E4B7B635E4B3B635E4B0A
:10015C00FB625E4BBB625E4B7B625E4B3B625E4BFB
:10016C00FB615E4BBB615E4B7B615E4B3B615E4BEF
:10017C00FB605E4BBB605E4B7B607B6B1B6843F034
:10018C0000727B6B1A603B6B1B6843F001023B6B8C
:10019C001A603B6B1B6843F004023B6B1A60FB6AF2
:1001AC001B6823F4C042FB6A1A60BB6A1B6823F409
:1001BC007042BB6A1A60BB6A1B6823F47022BB6A6C
:1001CC001A60BB6A1B6843F48042BB6A1A607B6A84
:1001DC001B6843F400627B6A1A60BB6A1B6843F4B9
:1001EC002022BB6A1A603B6A1B6843F001023B6A1F
:1001FC001A6000BFFB691B6803F00103002BF9D0E8
:10020C003B6A1B6843F030023B6A1A60BB690022F0
:10021C001A60BB691B6843F00102BB691A60BB69B9
:10022C001B6843F43022BB691A60BB691B6843F43A
:10023C000012BB691A603B6A1B6823F001023B6A1F
:10024C001A607B691B6843F001027B691A603B6989
:10025C001B6823F001023B691A60FB681B6843F0C2
:10026C000102FB681A60BB681B68C3F31402BB680D
:10027C001A607B681B68C3F314027B681A60BB6846
:10028C001B6843F00052BB681A607B681A687B6875
:10029C001A603B691B6843F001023B691A607B6979
:1002AC001B6823F001027B691A60FB691B6823F051
:1002BC000102FB691A6000BF3C37BD4680BC704729
:1002CC001C100240181002400400014004080140B8
:1002DC001008014000640040046400401C640040AD
:1002EC00006600401C6600400C6600404066004002
:1002FC004466004080B489B000AFF860B960134622
:10030C00FB71134BFB61134BBB61134B7B61134BA9
:10031C003B6100BFFB691B689B0E03F00103002BC4
:10032C00F8D0FB685A05BB691A60FA797B691A60C8
:10033C00BB681B781A463B691A60BB691B6843F0A3
:10034C000102BB691A6000BF2437BD4680BC7047F0
:10035C00086400408065004084650040886500406A
:10036C0080B485B000AF304BFB60304BBB60304B82
:10037C007B60FB681B6843F48032FB681A6000BF2B
:10038C00FB681B685B0C03F00103002BF8D0BB6807
:10039C001B6843F48032BB681A60BB681B6823F48B
:1003AC000032BB681A60BB681B6823F47012BB6810
:1003BC001A60BB681B6823F0F002BB681A60BB684C
:1003CC001B6823F4E062BB681A60BB681B6823F4EB
:1003DC006052BB681A60FB681B6843F08072FB6854
:1003EC001A6000BFFB681B685B0E03F00103002B57
:1003FC00F8D0BB681B6823F00302BB681A60BB68AB
:10040C001B6843F00202BB681A6000BFBB681B6824
:10041C009B0803F00303022BF8D100BF00BF143775
:10042C00BD4680BC704700BF001002400410024063
:10043C001410024080B584B000AFFFF791FF00F0BC
:10044C0057F8FFF77DFE00F0C7F8114A3B1D92E804
:10045C00030018600433198002330A0C1A7000234D
:10046C00FB720023FB600BE0FB683A1D134408226F
:10047C0019464FF48070FFF73DFFFB680133FB60BA
:10048C00FB68072BF0DD4FF47A7000F08DF8E8E78D
:10049C006407000880B400AFFEE780B400AFFEE74D
:1004AC0080B400AFFEE780B400AFFEE780B400AFCD
:1004BC00FEE780B400AF00BFBD4680BC704780B47F
:1004CC0000AF00BFBD4680BC704780B400AF00BF1A
:1004DC00BD4680BC704780B500AF00F0FBF800BF94
:1004EC0080BD80B400AF00BFBD4680BC704700002B
:1004FC0080B487B000AF194B7B617B691B6843F4F8
:10050C0000627B691A60164B3B61164BFB60164B05
:10051C00BB60164B7B60164B3B60FB6840F2E732CE
:10052C001A80BB680F221A803B691B8843F00103B9
:10053C009AB23B691A803B681B8843F001039AB25C
:10054C003B681A807B681B6843F000727B681A60FA
:10055C0000BF1C37BD4680BC704700BF181002405E
:10056C00002C01402C2C0140282C014000E100E023
:10057C000C2C014080B483B000AF094B7B607B68CE
:10058C001B8823F001039AB27B681A80054B1B6809
:10059C000133044A136000BF0C37BD4680BC704762
:1005AC00102C01402000002080B485B000AF786092
:1005BC00084B1B68FB6000BF064B1A68FB68D31A1C
:1005CC007A689A42F8D800BF00BF1437BD4680BC89
:1005DC00704700BF2000002080B487B000AF254BCF
:1005EC007B61254B3B61254BFB607B691B6843F0B2
:1005FC0004027B691A607B691B6843F001027B690A
:10060C001A60FB681B6823F47F62FB681A60FB6846
:10061C001B6843F49662FB681A603B691B6823F005
:10062C0004023B691A607B691B6843F480427B6956
:10063C001A60134BBB60BB688B221A60114B7B603A
:10064C007B681B6823F480627B681A607B681B687C
:10065C0023F480527B681A607B681B6843F4005358
:10066C0043F02C037A68136000BF1C37BD4680BC76
:10067C00704700BF181002400400014004080140FC
:10068C00083801400C380140FFF72BFF0B480C4990
:10069C000C4A002302E0D458C4500433C4188C42D2
:1006AC00F9D3094A094C002301E013600432A24239
:1006BC00FBD300F021F8FFF7BDFE704700000020CF
:1006CC00040000207407000804000020280000200B
:1006DC00FEE7000080B400AF054B1B781A46054BB3
:1006EC001B681344034A136000BFBD4680BC7047AF
:1006FC00000000202400002070B500260C4D0D4C8D
:10070C00641BA410A64209D100F01AF800260A4D69
:10071C000A4C641BA410A64205D170BD55F8043BCD
:10072C0098470136EEE755F8043B98470136F2E757
:10073C006C0700086C0700086C07000870070008BD
:10074C00F8B500BFF8BC08BC9E467047F8B500BFB2
:08075C00F8BC08BC9E46704782
:0807640044756F6E670A000086
:04076C00310100084F
:040770000D0100086F
:040774000100000080
:040000050800069554
:00000001FF
