:100000000C9436000C945E000C945E000C945E0020
:100010000C945E000C945E000C945E000C945E00E8
:100020000C945E000C945E000C945E000C945E00D8
:100030000C945E000C945E000C94B3020C945E0071
:100040000C9411020C945E000C9481020C945B02DF
:100050000C945E000C945E000C945E000C945E00A8
:100060000C945E000C945E00E902D40411241FBEBF
:10007000CFEFD8E0DEBFCDBF21E0ACE2B1E001C000
:100080001D92A33EB207E1F711E0A0E0B1E0EEEA75
:10009000FFE002C005900D92AC32B107D9F710E035
:1000A000C5E3D0E004C02197FE010E94D205C4330D
:1000B000D107C9F70E9470030C94CA070C94000082
:1000C000AF92BF92CF92DF92EF92FF920F931F9366
:1000D000CF93DF936C017B018B01040F151FEB01A4
:1000E0005E01AE18BF08C017D10759F06991D6015B
:1000F000ED91FC910190F081E02DC6010995892BCD
:1001000079F7C501DF91CF911F910F91FF90EF908B
:10011000DF90CF90BF90AF900895FC01538D448D38
:10012000252F30E0842F90E0821B930B541710F0A2
:10013000CF96089501970895FC01918D828D9817AF
:1001400061F0A28DAE0FBF2FB11D5D968C91928D87
:100150009F5F9F73928F90E008958FEF9FEF0895B8
:10016000EF92FF920F931F93CF93DF937C0108E3ED
:1001700011E0D0E0C0E02FB7F89480913401909165
:100180003501A0913601B09137012FBF8093440112
:1001900090934501A0934601B09347018CE391E011
:1001A0000E949C0097FF2CC02FB7F89480913401D7
:1001B00090913501A0913601B09137012FBF409148
:1001C0004401509145016091460170914701841BA3
:1001D000950BA60BB70B40914001509141016091E6
:1001E00042017091430184179507A607B707B0F243
:1001F000CE01DF91CF911F910F91FF90EF90089565
:10020000F80181938F012196EC16FD0609F0B3CF1A
:10021000EFCFFC01918D828D981731F0828DE80F20
:10022000F11D858D90E008958FEF9FEF0895FC01FB
:10023000918D228D892F90E0805C9F4F821B9109C8
:100240008F73992708958CE391E00E94170121E0B4
:10025000892B09F420E0822F089580E090E0892B1B
:1002600029F00E94230181110C9400000895FC01E3
:10027000A48DA80FB92FB11DA35ABF4F2C91848D07
:1002800090E001968F739927848FA689B7892C9364
:10029000A089B1898C91837080648C93938D848DB7
:1002A000981306C00288F389E02D80818F7D8083BA
:1002B0000895EF92FF920F931F93CF93DF93EC017A
:1002C00081E0888F9B8D8C8D98131AC0E889F989FD
:1002D000808185FF15C09FB7F894EE89FF89608300
:1002E000E889F98980818370806480839FBF81E081
:1002F00090E0DF91CF911F910F91FF90EF900895C3
:10030000F62E0B8D10E00F5F1F4F0F731127E02E9D
:100310008C8D8E110CC00FB607FCFACFE889F989D5
:10032000808185FFF5CFCE010E943701F1CFEB8DA3
:10033000EC0FFD2FF11DE35AFF4FF0829FB7F894A9
:100340000B8FEA89FB8980818062CFCF682F8CE395
:1003500091E00C945901CF93DF93EC01888D8823B1
:10036000B9F0AA89BB89E889F9898C9185FD03C018
:10037000808186FD0DC00FB607FCF7CF8C9185FFFD
:10038000F2CF808185FFEDCFCE010E943701E9CF0A
:10039000DF91CF9108950F931F93CF93DF9300D0F8
:1003A00000D0CDB7DEB769837A838B839C838A01C3
:1003B000FA018081082E000C990B0E94A601F80119
:1003C0008181082E000C990B0E94A601CE01019696
:1003D00090932D0180932C018C81082E000C990B99
:1003E0000E94A6018B81082E000C990B0E94A60189
:1003F0008A81082E000C990B0E94A6018981082E83
:10040000000C990B0E94A6018BE390E00E94A601CC
:100410000F900F900F900F90DF91CF911F910F9140
:1004200008951F920F920FB60F9211242F933F93AE
:100430008F939F93AF93BF93809134019091350137
:10044000A0913601B09137013091330123E0230FA1
:100450002D3758F50196A11DB11D209333018093CE
:10046000340190933501A0933601B0933701809108
:100470002F0190913001A0913101B091320101968C
:10048000A11DB11D80932F0190933001A0933101E4
:10049000B0933201BF91AF919F918F913F912F9176
:1004A0000F900FBE0F901F90189526E8230F02960D
:1004B000A11DB11DD2CF1F920F920FB60F92112422
:1004C0002F933F934F935F936F937F938F939F935C
:1004D000AF93BF93EF93FF938CE391E00E943701BA
:1004E000FF91EF91BF91AF919F918F917F916F910C
:1004F0005F914F913F912F910F900FBE0F901F90E2
:1005000018951F920F920FB60F9211242F938F936D
:100510009F93EF93FF93E0914C01F0914D01808107
:10052000E0915201F091530182FD1BC090818091B6
:1005300055018F5F8F7320915601821741F0E09132
:100540005501F0E0E45CFE4F958F80935501FF91DB
:10055000EF919F918F912F910F900FBE0F901F9051
:1005600018958081F4CF1F920F920FB60F9211242D
:100570008F939F93AF93BF9380910001909101015E
:10058000A0910201B09103010197A109B10989F07D
:100590008093000190930101A0930201B0930301A5
:1005A000BF91AF919F918F910F900FBE0F901F90B1
:1005B000189580E293E0A0E0B0E080930001909372
:1005C0000101A0930201B093030181E080932E0109
:1005D000E7CF10923F0110923E0188EE93E0A0E039
:1005E000B0E08093400190934101A0934201B09309
:1005F000430188E191E090933D0180933C0185ECBB
:1006000090E0909349018093480184EC90E09093AE
:100610004B0180934A0180EC90E090934D018093D0
:100620004C0181EC90E090934F0180934E0182EC5D
:1006300090E0909351018093500186EC90E090936C
:10064000530180935201109255011092560110925D
:100650005701109258011092DA011092D9011092AC
:10066000DC011092DB011092DE011092DD0161E0ED
:1006700070E090E080E00E94FD060097E1F090932A
:10068000DA018093D9011092DC011092DB012091F4
:10069000DD013091DE01232B11F4FC011082109258
:1006A000DE011092DD0168E271E08091D901909144
:1006B000DA010C94C3078091D9019091DA01009777
:1006C00011F00E9474061092DA011092D901109272
:1006D000DE011092DD011092DC011092DB01089521
:1006E000CF93DF9300D0CDB7DEB7789484B5826026
:1006F00084BD84B5816084BD85B5826085BD85B5C6
:10070000816085BD80916E00816080936E00109243
:1007100081008091810082608093810080918100BE
:10072000816080938100809180008160809380004F
:100730008091B10084608093B1008091B0008160AD
:100740008093B00080917A00846080937A008091D9
:100750007A00826080937A0080917A008160809331
:100760007A0080917A00806880937A001092C100AC
:10077000F89414BC15BC10926E0084B5826084BDE0
:1007800080916E00826080936E0087EC87BD85B596
:10079000816085BDE0914C01F0914D0182E0808344
:1007A000E0914801F09149011082E0914A01F091F5
:1007B0004B0180E1808310925401E0915001F0914F
:1007C000510186E08083E0914E01F0914F018081DC
:1007D00080618083E0914E01F0914F0180818860BB
:1007E0008083E0914E01F0914F0180818068808389
:1007F000E0914E01F0914F0180818F7D808378944C
:10080000CE0101967C0100E010E080912E0188234A
:1008100009F452C010922E0160910A0170910B01EF
:1008200080910C0190910D0146E251E00E94CB01B4
:100830006091060170910701809108019091090172
:1008400049E251E00E94CB018091040190910501A1
:100850009A83898380E790E00E94A60183E790E075
:100860000E94A601F0922D01E0922C018A81082EAF
:10087000000C990B0E94A6018981082E000C990B8F
:100880000E94A6018BE390E00E94A60120E030E0E8
:1008900040E251E460910A0170910B0180910C01DA
:1008A00090910D010E94660560930A0170930B01FF
:1008B00080930C0190930D018CE391E00E9417014D
:1008C00007975CF08CE391E00E949C0080359105D5
:1008D00081F08335910509F444C00115110509F42F
:1008E00094CF0E942301882309F48FCF0E94000037
:1008F0008CCF8CE391E00E949C0080359105B1F093
:100900008335910551F782E090E00E94B0008CE3BE
:1009100091E00E949C00CB9701F780913901809370
:1009200004018091380180930501D7CF84E090E0E5
:100930000E94B0008CE391E00E949C00CB9769F686
:1009400080913B0180930A0180913A0180930B01D1
:100950008091390180930C018091380180930D01C1
:10096000BCCF8CE391E00E949C008035910521F47E
:1009700084E090E00E94B0008CE391E00E949C0033
:10098000CB9709F0AACF80913B018093060180911B
:100990003A01809307018091390180930801809189
:1009A00038018093090199CF8091D9019091DA01A2
:1009B000009711F00C947406089597F99F6780E8EA
:1009C00070E060E008959FEF80EC089500240A94A1
:1009D0001616170618060906089500240A9412161A
:1009E0001306140605060895092E0394000C11F44D
:1009F000882352F0BB0F40F4BF2B11F460FF04C0FA
:100A00006F5F7F4F8F4F9F4F089557FD9058440F52
:100A1000551F59F05F3F71F04795880F97FB991F5D
:100A200061F09F3F79F0879508951216130614061A
:100A3000551FF2CF4695F1DF08C0161617061806A7
:100A4000991FF1CF86957105610508940895E89482
:100A5000BB2766277727CB0197F908952F923F92FE
:100A60004F925F926F927F928F929F92AF92BF92BE
:100A7000CF92DF92EF92FF920F931F93CF93DF936A
:100A8000CDB7DEB7CA1BDB0B0FB6F894DEBF0FBEC7
:100A9000CDBF09942A88398848885F846E847D8414
:100AA0008C849B84AA84B984C884DF80EE80FD8016
:100AB0000C811B81AA81B981CE0FD11D0FB6F8948C
:100AC000DEBF0FBECDBFED0108955058BB27AA274A
:100AD0000E947D050C94F4040E94E60438F00E9404
:100AE000ED0420F039F49F3F19F426F40C94E3044C
:100AF0000EF4E095E7FB0C94DD04E92F0E94050558
:100B000058F3BA17620773078407950720F079F442
:100B1000A6F50C9427050EF4E0950B2EBA2FA02D08
:100B20000B01B90190010C01CA01A0011124FF279A
:100B3000591B99F0593F50F4503E68F11A16F04095
:100B4000A22F232F342F4427585FF3CF4695379594
:100B50002795A795F0405395C9F77EF41F16BA0B59
:100B6000620B730B840BBAF09150A1F0FF0FBB1F07
:100B7000661F771F881FC2F70EC0BA0F621F731F50
:100B8000841F48F4879577956795B795F7959E3FAD
:100B900008F0B0CF9395880F08F09927EE0F97953E
:100BA00087950895EE0FFF1F0590F491E02D0994AD
:100BB0000F931F93CF93DF938230910510F482E05F
:100BC00090E0E091E101F091E20130E020E0B0E05E
:100BD000A0E0309799F42115310509F44AC0281B8B
:100BE000390B24303105D8F58A819B816115710557
:100BF00089F1FB0193838283FE0111C04081518101
:100C00000281138148175907E0F04817590799F4F2
:100C1000109761F012960C93129713961C933296CC
:100C2000CF01DF91CF911F910F9108950093E101C2
:100C30001093E201F4CF2115310551F0421753070B
:100C400038F0A901DB019A01BD01DF01F801C1CF34
:100C5000EF01F9CF9093E2018093E101CDCFFE0146
:100C6000E20FF31F81939193225031093983288336
:100C7000D7CF2091DF013091E001232B41F4209167
:100C80001001309111013093E0012093DF01209198
:100C90000E0130910F012115310541F42DB73EB7FA
:100CA0004091120150911301241B350BE091DF019B
:100CB000F091E001E217F307A0F42E1B3F0B281779
:100CC000390778F0AC014E5F5F4F2417350748F0C5
:100CD0004E0F5F1F5093E0014093DF01819391938A
:100CE0009FCFF0E0E0E09CCFCF93DF930097E9F057
:100CF000FC01329713821282A091E101B091E201CE
:100D0000ED0130E020E01097A1F420813181820FC5
:100D1000931F2091DF013091E0012817390709F076
:100D200061C0F093E001E093DF01DF91CF9108957E
:100D3000EA01CE17DF07E8F54A815B819E01411584
:100D40005105B1F7E901FB83EA8349915991C40F39
:100D5000D51FEC17FD0761F4808191810296840F05
:100D6000951FE90199838883828193819B838A837C
:100D7000F0E0E0E012968D919C9113970097B9F501
:100D80002D913C911197CD010296820F931F2091D6
:100D9000DF013091E0012817390739F6309751F516
:100DA0001092E2011092E101B093E001A093DF0103
:100DB000BCCFD383C28340815181840F951FC81754
:100DC000D90761F44E5F5F4F88819981480F591FA1
:100DD000518340838A819B819383828321153105CE
:100DE00009F0B0CFF093E201E093E1019ECFFD0165
:100DF000DC01C0CF13821282D7CFB0E0A0E0E3E0E5
:100E0000F7E00C9430058C01009751F4CB010E945F
:100E1000D8058C01C801CDB7DEB7E0E10C944C05D4
:100E2000FC01E60FF71F9C0122503109E217F3077E
:100E300008F49DC0D901CD91DC911197C617D70751
:100E400098F0C530D10530F3CE0104978617970787
:100E500008F3C61BD70B2297C193D1936D937C9354
:100E6000CF010E947406D6CF5B01AC1ABD0A4C01BB
:100E70008C0E9D1EA091E101B091E201512C412CFC
:100E8000F12CE12C109731F58091DF019091E00178
:100E90008815990509F05CC04616570608F058C039
:100EA00080910E0190910F01009741F48DB79EB78C
:100EB0004091120150911301841B950BE817F9071B
:100EC00008F055C0F093E001E093DF01F901718370
:100ED0006083A0CF8D919C91119712966C90129780
:100EE00013967C901397A815B90559F56C0142E04B
:100EF000C40ED11CCA14DB0420F1AC014A195B09F1
:100F0000DA011296159780F06282738251834083D2
:100F1000D9016D937C93E114F10471F0D70113961C
:100F2000FC93EE93129776CF22968C0F9D1FF901BA
:100F300091838083F301EFCFF093E201E093E1012D
:100F400069CF4816590608F42C017D01D3019ACFC8
:100F5000CB010E94D8057C01009749F0AE01B80191
:100F60000E94BA07C8010E947406870153CF10E09F
:100F700000E050CFFB01DC0102C001900D92415016
:100F80005040D8F70895FB01DC0101900D9200203C
:100F9000E1F7089510E0C5E3D0E004C0FE010E942F
:0E0FA000D2052196C633D107C9F7F894FFCFCA
:100FAE00200300007D5B3FD576449172CC45000056
:100FBE00E301800000000000590160008D00AB01CC
:0C0FCE0017019C00090170700073700096
:00000001FF
